:020000040800F2
:10000000000001202D440008891B00088F1B0008F8
:10001000951B00089B1B0008A11B000800000000A6
:10002000000000000000000000000000A71B000806
:10003000B51B000800000000C31B0008D11B00080E
:100040007D4400087D4400087D4400087D4400088C
:100050007D4400087D4400087D4400087D4400087C
:100060007D4400087D4400087D4400087D4400086C
:100070007D4400087D4400087D4400087D4400085C
:100080007D4400087D4400087D4400080000000015
:100090000000000000000000000000007D44000897
:1000A0007D4400087D4400087D4400087D4400082C
:1000B0007D4400087D4400087D4400087D4400081C
:1000C0007D4400087D4400087D4400087D4400080C
:1000D0007D4400087D4400087D44000800000000C5
:1000E0007D4400087D4400087D44000800000000B5
:1000F0000000000000000000000000007D44000837
:10010000000000007D4400087D4400087D44000894
:1001100000000000000000000000000000000000DF
:100120007D4400087D4400087D4400087D440008AB
:100130007D440008000000000000000000000000F6
:100140000000000000000000000000007D440008E6
:100150007D4400087D4400087D4400087D4400087B
:100160007D4400087D4400080000000000000000FD
:10017000000000000000000000000000000000007F
:10018000000000007D4400080000000000000000A6
:040190007D440008A2
:1001C0000348044B834202D0034B03B118477047E6
:1001D0007000002070000020000000000548064963
:1001E0000B1AD90F01EBA301491002D0034B03B145
:1001F00018477047700000207000002000000000C9
:1002000010B5064C237843B9FFF7DAFF044B13B15E
:100210000448AFF300800123237010BD700000205C
:10022000000000008044000808B5044B1BB10449DD
:100230000448AFF30080BDE80840CFE700000000AD
:10024000740000208044000853B94AB9002908BF4F
:1002500000281CBF4FF0FF314FF0FF3000F074B9A1
:10026000ADF1080C6DE904CE00F006F8DDF804E00D
:10027000DDE9022304B070472DE9F047089D0446EC
:100280008E46002B4DD18A42944669D9B2FA82F249
:1002900052B101FA02F3C2F1200120FA01F10CFA85
:1002A00002FC41EA030E94404FEA1C48210CBEFBBD
:1002B000F8F61FFA8CF708FB16E341EA034306FB46
:1002C00007F199420AD91CEB030306F1FF3080F0D5
:1002D0001F81994240F21C81023E63445B1AA4B222
:1002E000B3FBF8F008FB103344EA034400FB07F7C4
:1002F000A7420AD91CEB040400F1FF3380F00A8105
:10030000A74240F207816444023840EA0640E41BF9
:1003100000261DB1D4400023C5E900433146BDE8A5
:10032000F0878B4209D9002D00F0EF800026C5E947
:10033000000130463146BDE8F087B3FA83F6002E5F
:100340004AD18B4202D3824200F2F980841A61EBD7
:10035000030301209E46002DE0D0C5E9004EDDE7F5
:1003600002B9FFDEB2FA82F2002A40F09280A1EBDD
:100370000C014FEA1C471FFA8CFE0126200CB1FB32
:10038000F7F307FB131140EA01410EFB03F088422B
:1003900008D91CEB010103F1FF3802D2884200F2B8
:1003A000CB804346091AA4B2B1FBF7F007FB10114A
:1003B00044EA01440EFB00FEA64508D91CEB0404E8
:1003C00000F1FF3102D2A64500F2BB800846A4EB43
:1003D0000E0440EA03409CE7C6F12007B34022FA2E
:1003E00007FC4CEA030C20FA07F401FA06F31C435D
:1003F000F9404FEA1C4900FA06F3B1FBF9F8200C6A
:100400001FFA8CFE09FB181140EA014108FB0EF0AF
:10041000884202FA06F20BD91CEB010108F1FF3AFF
:1004200080F08880884240F28580A8F1020861440B
:10043000091AA4B2B1FBF9F009FB101144EA014119
:1004400000FB0EFE8E4508D91CEB010100F1FF34C4
:100450006CD28E456AD90238614440EA0840A0FB5C
:100460000294A1EB0E01A142C846A64656D353D032
:100470005DB1B3EB080261EB0E0101FA07F722FA56
:1004800006F3F1401F43C5E9007100263146BDE87F
:10049000F087C2F12003D8400CFA02FC21FA03F3E2
:1004A000914001434FEA1C471FFA8CFEB3FBF7F063
:1004B00007FB10360B0C43EA064300FB0EF69E4288
:1004C00004FA02F408D91CEB030300F1FF382FD221
:1004D0009E422DD9023863449B1B89B2B3FBF7F6C9
:1004E00007FB163341EA034106FB0EF38B4208D9A2
:1004F0001CEB010106F1FF3816D28B4214D9023EE3
:100500006144C91A46EA004638E72E46284605E700
:100510000646E3E61846F8E64B45A9D2B9EB0208D1
:1005200064EB0C0E0138A3E74646EAE7204694E761
:100530004046D1E7D0467BE7023B614432E7304694
:1005400009E76444023842E7704700BF014B18686E
:10055000704700BF0000002070B50D4E0D4D761B9A
:10056000B61006D0002455F8043B01349847A64243
:10057000F9D1094E094D761B03F082FFB61006D063
:10058000002455F8043B01349847A642F9D170BDC8
:10059000C4460008C4460008C8460008C44600080F
:1005A000830730B548D0541E002A3FD0CAB2034654
:1005B00001E0013C3AD303F8012B9D07F9D1032C4C
:1005C0002DD9CDB245EA05250F2C45EA054536D98A
:1005D000A4F1100222F00F0C03F1200EE6444FEAC2
:1005E000121C03F1100242E9045542E9025510328F
:1005F0007245F8D10CF1010214F00C0F03EB02125A
:1006000004F00F0C13D0ACF1040323F00303043304
:10061000134442F8045B9342FBD10CF003042CB169
:10062000CAB21C4403F8012B9C42FBD130BD644686
:100630001346002CF4D1F9E703461446BFE71A46E7
:10064000A446E0E70CB410B59CB01EAB6FF00044BC
:10065000CDE906140291084953F8042B059102A92B
:100660000193049400F078F9029B00221A701CB0E8
:10067000BDE8104002B070470802FFFF0EB410B58D
:100680009DB06FF000411FABCDE90601049109490F
:1006900053F8042B0290084C0868019302A90594B2
:1006A00000F05AF9029B00221A701DB0BDE81040FC
:1006B00003B07047000000200802FFFF00000000A8
:1006C00090F800F06DE9024520F007016FF0000C92
:1006D00010F0070491F820F040F049804FF000043A
:1006E0006FF00700D1E9002391F840F000F1080015
:1006F00082FA4CF2A4FA8CF283FA4CF3A2FA8CF34D
:100700004BBBD1E9022382FA4CF200F10800A4FAB3
:100710008CF283FA4CF3A2FA8CF3E3B9D1E9042307
:1007200082FA4CF200F10800A4FA8CF283FA4CF33E
:10073000A2FA8CF37BB9D1E9062301F1200182FAF8
:100740004CF200F10800A4FA8CF283FA4CF3A2FAFE
:100750008CF3002BC6D0002A04BF04301A4612BA0C
:10076000B2FA82F2FDE8024500EBD2007047D1E90F
:10077000002304F00305C4F100004FEAC50514F09E
:10078000040F91F840F00CFA05F562EA05021CBF6F
:1007900063EA050362464FF00004A9E72DE9F0473C
:1007A0008F689F420C461D46164638D88246888977
:1007B00010F4906F0ED108683D462A46314600F08D
:1007C000C1FCA2682368D21B2B44A26023600020D6
:1007D000BDE8F0874B69096903EB4308236808EB20
:1007E000D878A3EB01096B1C4FEA68084B444345DA
:1007F000424684BF98464246430513D511465046AB
:1008000000F07EFD074608B321694A4600F000FC6F
:10081000A38923F4906343F08003A38107E0086871
:100820001F46CAE7504600F0C5FD074650B107EB2A
:100830000900A8EB09032761C4F81480A3602060B5
:100840002F46BAE72169504600F0F8FC0C23CAF89D
:100850000030A38943F040034FF0FF30A381B7E796
:100860002DE9F04F936883B09146002B6ED0176846
:100870008D6880460C460868083744E0A38913F465
:10088000906F2ED0D4E90415A0EB010A05EB4505C5
:1008900005EBD5750AEB06006D100130A8422A461B
:1008A00084BF05462A465B0537D51146404600F011
:1008B00027FD00283BD052462169019000F0A8FB9B
:1008C000A289019B22F4906242F08002A281A5EBF2
:1008D0000A0203EB0A006561A260236120603546CD
:1008E000B2465946524600F02DFCA068D9F80810CF
:1008F0002368451B8E1B03EB0A00A5602060C9F826
:1009000008601EB3083757E902B6002EFAD0B54288
:10091000AA46B3D93546B246E3E7404600F04AFD61
:1009200003460028D3D12169404600F087FC0C2300
:10093000C8F80030A389002243F040034FF0FF3095
:10094000A381C9E9012203B0BDE8F08F0020C9F8F6
:10095000040003B0BDE8F08F2DE9F04F92468A897C
:1009600015069DB0884681461C4603D50A69002AB3
:1009700000F0EF80002209929AF800307E4D039437
:1009800020228DF8292030228DF82A200126002BE4
:1009900072D0544603E014F8013F002B76D0252B8B
:1009A000F9D1B4EB0A0B74D12278002A64D0002369
:1009B0004FF0FF32CDE90523049307938DF85330B0
:1009C0001A93013404E0049A06FA03F313430493E0
:1009D000A246052214F8011B284600F0C9FA431B61
:1009E0000028F0D1049BD80644BF20228DF8532064
:1009F00019079AF8001044BF2B228DF853202A299A
:100A000054D1039A11680432002903927CDB0791C8
:100A10009AF801100AF1010A2E2959D0574C0322E5
:100A2000204600F0A5FA40B1049B001B402404FAC4
:100A300000F0034304930AF1010A1AF8011B50481D
:100A40008DF82810062200F093FA002862D04D4B52
:100A5000002B52D003AA00924B4B424604A94846B1
:100A6000AFF3008007467A1C06D0099B3B440993EC
:100A70009AF80030002B8CD1B8F80C305B0654BFCC
:100A800009984FF0FF301DB0BDE8F08FB4EB0A0BB2
:100A9000F2D05B46524641464846FFF77FFE0130A2
:100AA000EAD0099B22785B4409937EE7A1F13002EA
:100AB000092AB1D8079B1AF8011F03EB830302EB45
:100AC0004303A1F13002092AF5D92E290793A5D1B4
:100AD0009AF801102A2927D1039B9AF802101A6864
:100AE00005920433002A0AF102000393B8BF4FF0C5
:100AF000FF338246B8BF059390E7039B073323F08B
:100B0000070308330393B0E7494243F00203079118
:100B100004937DE703AA00921B4B424604A9484672
:100B200000F0CAF807469EE7A1F130020023092A27
:100B300005930AF1010A3FF671AF1AF8011F03EBA2
:100B4000830302EB4303A1F13002092AF5D905938F
:100B500064E7402100F0D4FBC8F80000C8F810009A
:100B600018B14022C8F8142004E70C23C9F800305B
:100B70004FF0FF3087E700BF804600088846000836
:100B80008C460008000000009D0700082DE9F84F82
:100B900092461F460A698B68DDF828909A42B8BFD2
:100BA0001A46CAF8002091F843300C46064613B1A5
:100BB0000132CAF80020226891065DD5DAF80030CB
:100BC0000233CAF80030226812F0060F11461ED117
:100BD000E168CB1A002BD8BF114618DD04F1190BC0
:100BE0004FF0000805E0E568DAF80030ED1A4545F9
:100BF0000CDD01235A4639463046C847013008F11A
:100C00000108F0D14FF0FF30BDE8F88F216894F86B
:100C10004330003B18BF01238A060AD5E1185A1C4D
:100C2000302081F84300224494F8451082F84310A4
:100C3000023304F1430239463046C8470130E1D05F
:100C4000236803F00603042B1DD0A3682269934296
:100C500025DD4FF000089B1A98441A34002501E066
:100C600045451CDA0123224639463046C847013043
:100C700005F10105F4D1C5E712F0060F12D0003BD3
:100C800018BF0123D5E7DAF80030E1682269C91AF4
:100C9000A368934221EAE178DDDC0029DDDC002055
:100CA000BDE8F88FE168DAF80030CB1A002BD8BF26
:100CB000114693DCABE700BF2DE9F0470C4684B04A
:100CC0009046227E0C990746994604F14300002A7B
:100CD00033D0A2F15803DDB2202D67D8202B65D880
:100CE000DFE813F0DE006400640064006400640068
:100CF00064006400640064006400A3006E0064008B
:100D00006400640064006E006400640064006400B9
:100D100021007F00C00064006400AE0064007F001A
:100D200064006400E50023681A0640F104810B6842
:100D300062691D1D0D601B681A60002382462361D5
:100D4000CDF80090434603AA21463846FFF71EFF20
:100D5000013020D02369524641463846C847013009
:100D600019D02368E068039E9B0719D5831B002BCD
:100D700016DD04F1190A002504E0E068039E831BD8
:100D8000AB420DDD0123524641463846C84701308B
:100D900005F10105F1D14FF0FF3004B0BDE8F08757
:100DA000B042B8BF304604B0BDE8F087012384F8F4
:100DB0004220236104F1420A002384F84330BFE754
:100DC00023681A0602D45E0600F1C1800D682A6805
:100DD00004350D601546002A6BDBDFF884C10A2656
:100DE00010E023681D0640F19C800B681D1D0D60FE
:100DF0001D68DFF86CC16F2A0CBF08260A26002385
:100E000084F843306268A260002A7FDB236823F005
:100E100004032360002D5BD1002A79D18246082E7D
:100E200065D0A0EB0A0020618AE70B6801221868F0
:100E300004330B6004F1420A84F842002261BBE7EC
:100E40000B686268181D0860D3F800A000215046A6
:100E500000F08EF8002800F08180A0EB0A006060AE
:100E60002061A9E7236843F0200323607822DFF89C
:100E7000F4C084F845200A68151D0D601D0643D492
:100E8000590641D51588DE0744BF43F0200323608F
:100E9000002D44D1236823F0200323601026AEE701
:100EA000582384F84530DFF8B8C02368E3E72368A7
:100EB000DCE76268A2602D21002AC5F1000584F8F4
:100EC000431002DB23F004032360DFF894C00A26FA
:100ED0008246B5FBF6F306FB13512A461CF80110B7
:100EE0000AF8011DB2421D46F3D2082E99D123689B
:100EF000D90796D5626823699A4292DC30230AF8B2
:100F0000013C0AF1FF3A8CE71568BCE7002DDFD100
:100F10009CF8003084F8423004F1420A7FE7102642
:100F20006DE713F0400F0B6803F104050D600CBF73
:100F30001D681D885DE713F0400F0B68626903F1BF
:100F400004050D601B6814BF1A801A60F5E60A6874
:100F5000B2F9005004320A602A463CE760687FE735
:100F600094460008A84600080000000000000000A9
:100F700001F0FF01102A2BDB10F0070F08D010F84A
:100F8000013B013A8B422DD010F0070F42B3F6D14E
:100F9000F0B441EA012141EA014122F007047FF067
:100FA00000070023F0E80256083C85EA010586EABE
:100FB000010685FA47F5A3FA87F586FA47F6A5FAFA
:100FC00087F68EB9EED1F0BC01F0FF0102F0070206
:100FD00032B110F8013B013A83EA010313B1F8D1B1
:100FE0000020704701387047002D06BF3546033892
:100FF000073815F0010F07D1013015F4807F02BFCB
:10100000013015F4C03F0130F0BC0138704700BF1B
:10101000844641EA000313F003036DD1403A41D303
:1010200051F8043B40F8043B51F8043B40F8043BC2
:1010300051F8043B40F8043B51F8043B40F8043BB2
:1010400051F8043B40F8043B51F8043B40F8043BA2
:1010500051F8043B40F8043B51F8043B40F8043B92
:1010600051F8043B40F8043B51F8043B40F8043B82
:1010700051F8043B40F8043B51F8043B40F8043B72
:1010800051F8043B40F8043B51F8043B40F8043B62
:1010900051F8043B40F8043B51F8043B40F8043B52
:1010A000403ABDD2303211D351F8043B40F8043BF2
:1010B00051F8043B40F8043B51F8043B40F8043B32
:1010C00051F8043B40F8043B103AEDD20C3205D302
:1010D00051F8043B40F8043B043AF9D2043208D0FA
:1010E000D2071CBF11F8013B00F8013B01D30B886C
:1010F00003806046704700BF082A13D38B078DD04A
:1011000010F003038AD0C3F10403D21ADB071CBF1B
:1011100011F8013B00F8013B80D331F8023B20F885
:10112000023B7BE7043AD9D3013A11F8013B00F8BE
:10113000013BF9D20B7803704B7843708B78837046
:101140006046704788420DD98B1883420AD900EB5C
:10115000020CBAB1624613F801CD02F801CD9942F2
:10116000F9D170470F2A0ED8034602F1FF3C4AB16D
:101170000CF1010C013B8C4411F8012B03F8012FF9
:101180006145F9D1704740EA01039B0750D1A2F1B4
:10119000100370B501F1200C23F00F0501F1100EC2
:1011A00000F11004AC441B095EF8105C44F8105CBC
:1011B0005EF80C5C44F80C5C5EF8085C44F8085C73
:1011C0005EF8045C44F8045C0EF1100EE64504F190
:1011D0001004E9D1013312F00C0F01EB031102F0FE
:1011E0000F0400EB031327D0043C24F003064FEA5E
:1011F000940C1E441C1F8E465EF8045B44F8045F8A
:10120000B442F9D10CF1010402F0030203EB8403B0
:1012100001EB840102F1FF3C4AB10CF1010C013BEE
:101220008C4411F8012B03F8012F6145F9D170BDF1
:1012300002F1FF3C03469BE72246EBE7002958D02A
:1012400030B551F8043C83B0002BA1F10404B8BFC1
:10125000E418019000F0E8F8284A0198136833B1C7
:10126000A3420DD9216804EB010C63452FD06360C4
:10127000146003B0BDE8304000F0D8B8A34210D8E5
:101280001A465B68002BF9D1116802EB010C64452A
:1012900019D02FD36360546003B0BDE8304000F034
:1012A000C5B8116802EB010CA44516D022D82168FC
:1012B00004EB010C6345EDD11D685B682944C4E96A
:1012C00000135460D5E7236819441160D1E71D6805
:1012D0005B682944C4E90013CAE724682144541810
:1012E000A3421160C5D1D3E900432144C2E90013F0
:1012F000BFE770470C230360BBE700BF8C000020F2
:10130000F8B5CD1C25F0030508350C2D38BF0C258C
:10131000002D064623DBA94221D8254F00F084F892
:101320003A6822B3144603E063682246FBB11C46C8
:1013300023685B1BF8D40B2B15D8636894420CBF51
:101340003B605360304600F071F804F10B00231D40
:1013500020F00700C21A01D01B1AA350F8BD0C23BD
:1013600033600020F8BD23601C442560EAE77968FB
:10137000C9B12946304600F045F8431C0CD0C41CC6
:1013800024F00304A04205D0211A304600F03AF8B8
:10139000013001D02560D5E70C233046336000F0E2
:1013A00045F80020F8BD304600F02CF87860E0E702
:1013B0008C000020F8B51446F9B1CAB106460D46B6
:1013C00000F036F8A04202D32F463846F8BD214639
:1013D0003046FFF795FF07460028F6D022462946FB
:1013E000FFF716FE30462946FFF728FF3846F8BDBE
:1013F0002746FFF723FF3846F8BDBDE8F840114601
:10140000FFF77EBF38B5074D0022044608462A6024
:1014100000F0E4FB431C00D038BD2B68002BFBD050
:10142000236038BD94000020704700BF704700BFA4
:1014300051F8040C0028A0F10400BCBF0B58C018E0
:10144000704700BF80B483B000AF0346FB80FB88C9
:101450001B0A9BB21AB2FB881B021BB213431BB2BE
:101460009BB218460C37BD465DF8047B7047000000
:1014700080B588B004AF03463960FB801346BB805B
:10148000FB881846FFF7DEFF0346FB81FA894FF021
:10149000FF330293BB8801933B6800931023102114
:1014A000034801F03BF9034618461037BD4680BD9E
:1014B0009800002080B588B004AF03463960FB80F7
:1014C0001346BB80FB881846FFF7BCFF0346FB8131
:1014D000FA894FF0FF330293BB8801933B68009376
:1014E00010231021034801F01FF803461846103757
:1014F000BD4680BD9800002080B582B000AF786006
:101500007868FFF7DDF803469AB24FF0FF33796849
:10151000034802F0CFFB00BF0837BD4680BD00BFC7
:10152000EC00002080B598B000AF00F09FFB00F009
:10153000FBF800F0BBF900F08FF900F05FF940F61E
:10154000B83000F005FC6C48FFF7D6FF642000F0CF
:10155000FFFB202269494FF4C050FFF7ABFF034661
:10156000002B03D16648FFF7C7FF02E06548FFF78D
:10157000C3FF142000F0ECFB012387F8573007F17C
:1015800057030122194641F20500FFF793FF034676
:10159000002B03D15C48FFF7AFFF02E05B48FFF789
:1015A000ABFF642000F0D4FB00233B6507F1500340
:1015B000042219464FF4A050FFF75AFF0346002BB0
:1015C0000CD197F850301A4697F85130381D5049D1
:1015D000FFF754F83B1D1846FFF78EFF0023FB640E
:1015E00007F14C030422194641F21000FFF740FFB7
:1015F0000346002B18D197F84F301A0697F84E3053
:101600001B041A4397F84D301B02134397F84C20E4
:101610001343FB653B1DFA6D3E491846FFF72EF854
:101620003B1D1846FFF768FF0023BB6407F1480322
:101630000422194641F21400FFF71AFF0346002B5B
:1016400018D197F84B301A0697F84A301B041A4302
:1016500097F849301B02134397F848201343BB65A2
:101660003B1DBA6D2C491846FFF708F83B1D18467C
:10167000FFF742FF002387F8473007F147030122B5
:10168000194641F20D00FFF7F3FE0346002B0ED181
:1016900097F847301A46642303FB02F23B1D1F49AB
:1016A0001846FEF7EBFF3B1D1846FFF725FF1C48C9
:1016B000FFF722FF1B48FFF71FFF07F14703012237
:1016C000194641F20D00FFF7D3FE0346002B0ED161
:1016D00097F847301A46642303FB02F23B1D0F497B
:1016E0001846FEF7CBFF3B1D1846FFF705FF4FF4EA
:1016F0007A7000F02DFBE0E7DC4400084846000863
:1017000004450008284500084445000868450008CD
:1017100090450008B4450008CC450008E4450008A1
:10172000F44500080C46000880B594B000AF07F1FE
:101730002003302200211846FEF732FF07F10C0388
:1017400000221A605A609A60DA601A610023BB6056
:10175000284B1B6C274A43F080531364254B1B6CAA
:1017600003F08053BB60BB6800237B60224B1B6887
:1017700023F44043204A43F4004313601E4B1B688C
:1017800003F440437B607B6801233B624FF480336A
:101790007B620223BB634FF48003FB6308233B643B
:1017A00054237B640223BB640423FB6407F12003FE
:1017B000184601F099FD0346002B01D000F004F912
:1017C0000F23FB6002233B6100237B614FF48053B6
:1017D000BB610023FB6107F10C030221184601F0F5
:1017E000FBFF0346002B01D000F0EEF800BF50379E
:1017F000BD4680BD003802400070004080B500AF9B
:10180000124B134A1A60114B124A5A600F4B0022B6
:101810009A600E4B0022DA600C4B4FF480421A6142
:101820000A4B00225A61094B00229A61074B0022A1
:10183000DA61064B00221A62044800F031FD0346CB
:10184000002B01D000F0C0F800BF80BD9800002040
:10185000005C0040A086010080B500AF114B124A29
:101860001A60104B4FF4E1325A600E4B00229A601E
:101870000C4B0022DA600B4B00221A61094B0C2240
:101880005A61084B00229A61064B0022DA61054832
:1018900002F0C0F90346002B01D000F095F800BF1C
:1018A00080BD00BFEC0000200044004080B58AB03D
:1018B00000AF07F1140300221A605A609A60DA60E0
:1018C0001A6100233B613D4B1B6B3C4A43F0800394
:1018D00013633A4B1B6B03F080033B613B690023AE
:1018E000FB60364B1B6B354A43F001031363334BEC
:1018F0001B6B03F00103FB60FB680023BB602F4BF5
:101900001B6B2E4A43F0020313632C4B1B6B03F03B
:101910000203BB60BB6800237B60284B1B6B274A1C
:1019200043F004031363254B1B6B03F004037B603C
:101930007B6800233B60214B1B6B204A43F008036C
:1019400013631E4B1B6B03F008033B603B680022D4
:1019500079211B4800F08AFC00220421194800F07C
:1019600085FC79237B610123BB610023FB6100239C
:101970003B6207F114031946114800F0F3FA0423FF
:101980007B610123BB610023FB6100233B6207F104
:10199000140319460B4800F0E5FA80237B6100230D
:1019A000BB610023FB6107F114031946044800F0F2
:1019B000D9FA00BF2837BD4680BD00BF00380240BD
:1019C00000040240000C024080B400AF72B600BFB9
:1019D000FEE7000080B483B000AF00237B60104BB3
:1019E0005B6C0F4A43F4804353640D4B5B6C03F410
:1019F00080437B607B6800233B60094B1B6C084A7B
:101A000043F080531364064B1B6C03F080533B6020
:101A10003B6800BF0C37BD465DF8047B704700BFD4
:101A20000038024080B58AB000AF786007F1140337
:101A300000221A605A609A60DA601A617B681B683B
:101A4000294A93424BD100233B61284B1B6B274A09
:101A500043F004031363254B1B6B03F004033B614A
:101A60003B690023FB60214B1B6B204A43F00103C1
:101A700013631E4B1B6B03F00103FB60FB684FF409
:101A800000737B611223BB610023FB6103233B6274
:101A900004237B6207F114031946154800F062FA2B
:101AA0004FF480737B611223BB610023FB6103232E
:101AB0003B6204237B6207F1140319460D4800F0D2
:101AC00051FA0023BB60094B1B6C084A43F4000326
:101AD0001364064B1B6C03F40003BB60BB6800BFC0
:101AE0002837BD4680BD00BF005C00400038024082
:101AF000000802400000024080B58AB000AF786064
:101B000007F1140300221A605A609A60DA601A61C1
:101B10007B681B68194A93422BD100233B61184B09
:101B20001B6C174A43F400331364154B1B6C03F40E
:101B300000333B613B690023FB60114B1B6B104A78
:101B400043F0010313630E4B1B6B03F00103FB60B7
:101B5000FB680C237B610223BB610023FB61032331
:101B60003B6207237B6207F114031946054800F026
:101B7000F9F900BF2837BD4680BD00BF00440040D2
:101B8000003802400000024080B400AFFEE780B49D
:101B900000AFFEE780B400AFFEE780B400AFFEE721
:101BA00080B400AFFEE780B400AF00BFBD465DF873
:101BB000047B704780B400AF00BFBD465DF8047B76
:101BC000704780B400AF00BFBD465DF8047B70472E
:101BD00080B500AF00F09CF800BF80BD80B586B036
:101BE00000AF7860144A154BD31A7B617B693B6167
:101BF000134B1B68002B02D1114B124A1A60104B79
:101C00001A687B6813443A699A4207D2FEF79EFC31
:101C100003460C221A604FF0FF3309E0084B1B68A3
:101C2000FB60074B1A687B681344054A1360FB6826
:101C300018461837BD4680BD000001200004000092
:101C4000340100204001002080B400AF064BD3F8DF
:101C50008830054A43F47003C2F8883000BFBD469F
:101C60005DF8047B704700BF00ED00E080B500AF79
:101C70000E4B1B680D4A43F4007313600B4B1B683B
:101C80000A4A43F480631360084B1B68074A43F415
:101C900080731360032000F031F90F2000F008F882
:101CA000FFF798FE0023184680BD00BF003C0240AD
:101CB00080B582B000AF7860124B1A68124B1B7867
:101CC00019464FF47A73B3FBF1F3B2FBF3F3184602
:101CD00000F03BF90346002B01D001230EE07B68A6
:101CE0000F2B0AD8002279684FF0FF3000F011F96D
:101CF000064A7B681360002300E00123184608377A
:101D0000BD4680BD640000206C00002068000020FB
:101D100080B400AF064B1B781A46064B1B68134471
:101D2000044A136000BFBD465DF8047B704700BFE6
:101D30006C0000203801002080B400AF034B1B680A
:101D40001846BD465DF8047B704700BF380100208F
:101D500080B584B000AF7860FFF7EEFFB8607B68B5
:101D6000FB60FB68B3F1FF3F05D00A4B1B781A46B6
:101D7000FB681344FB6000BFFFF7DEFF0246BB6851
:101D8000D31AFA689A42F7D800BF00BF1037BD4691
:101D900080BD00BF6C00002080B485B000AF7860CB
:101DA0007B6803F00703FB600C4BDB68BB60BA6821
:101DB0004FF6FF031340BB60FB681A02BB68134376
:101DC00043F0BF6343F40033BB60044ABB68D36095
:101DD00000BF1437BD465DF8047B704700ED00E09E
:101DE00080B400AF044BDB681B0A03F007031846FE
:101DF000BD465DF8047B704700ED00E080B483B021
:101E000000AF03463960FB7197F90730002B0ADBFE
:101E10003B68DAB20C4997F907301201D2B20B4491
:101E200083F800230AE03B68DAB20849FB7903F043
:101E30000F03043B1201D2B20B441A7600BF0C37D9
:101E4000BD465DF8047B704700E100E000ED00E076
:101E500080B489B000AFF860B9607A60FB6803F0C5
:101E60000703FB61FB69C3F10703042B28BF0423AD
:101E7000BB61FB690433062B02D9FB69033B00E01D
:101E800000237B614FF0FF32BB6902FA03F3DA43B0
:101E9000BB681A407B699A404FF0FF317B6901FAB9
:101EA00003F3D9437B680B40134318462437BD46E0
:101EB0005DF8047B7047000080B582B000AF7860A9
:101EC0007B68013BB3F1807F01D301230FE00A4A15
:101ED0007B68013B53600F214FF0FF30FFF78EFF0F
:101EE000054B00229A60044B07221A600023184613
:101EF0000837BD4680BD00BF10E000E080B582B06D
:101F000000AF78607868FFF747FF00BF0837BD462D
:101F100080BD80B586B000AF0346B9607A60FB73C0
:101F200000237B61FFF75CFF78617A68B9687869A4
:101F3000FFF78EFF024697F90F3011461846FFF75C
:101F40005DFF00BF1837BD4680BD80B582B000AFD1
:101F500078607868FFF7B0FF034618460837BD463B
:101F600080BD000080B489B000AF78603960002384
:101F70007B6100233B610023BB610023FB6159E1CE
:101F80000122FB6902FA03F37B613B681B687A69F3
:101F900013403B613A697B699A4240F048813B6853
:101FA0005B6803F00303012B05D03B685B6803F01B
:101FB0000303022B30D17B689B68BB61FB695B002C
:101FC000032202FA03F3DB43BA691340BB613B68A7
:101FD000DA68FB695B0002FA03F3BA691343BB6179
:101FE0007B68BA699A607B685B68BB610122FB69A8
:101FF00002FA03F3DB43BA691340BB613B685B68D9
:102000001B0903F00102FB6902FA03F3BA691343E7
:10201000BB617B68BA695A603B685B6803F0030385
:10202000032B17D07B68DB68BB61FB695B00032275
:1020300002FA03F3DB43BA691340BB613B689A6859
:10204000FB695B0002FA03F3BA691343BB617B6867
:10205000BA69DA603B685B6803F00303022B23D1A3
:10206000FB69DA087B68083253F82230BB61FB69F0
:1020700003F007039B000F2202FA03F3DB43BA6964
:102080001340BB613B681A69FB6903F007039B00BF
:1020900002FA03F3BA691343BB61FB69DA087B6890
:1020A0000832B96943F822107B681B68BB61FB6981
:1020B0005B00032202FA03F3DB43BA691340BB61FE
:1020C0003B685B6803F00302FB695B0002FA03F301
:1020D000BA691343BB617B68BA691A603B685B6885
:1020E00003F44033002B00F0A2800023FB60574B29
:1020F0005B6C564A43F480435364544B5B6C03F46B
:102100008043FB60FB68524AFB699B08023352F82C
:102110002330BB61FB6903F003039B000F2202FA2B
:1021200003F3DB43BA691340BB617B68494A9342BE
:1021300019D07B68484A934213D07B68474A934240
:102140000DD07B68464A934207D07B68454A93424C
:1021500001D1042308E0072306E0032304E002235F
:1021600002E0012300E00023FA6902F0030292007A
:102170009340BA691343BB613549FB699B0802333D
:10218000BA6941F82320384B9B68BB613B69DB434C
:10219000BA691340BB613B685B6803F48013002B92
:1021A00003D0BA693B691343BB612F4ABB69936093
:1021B0002D4BDB68BB613B69DB43BA691340BB61F4
:1021C0003B685B6803F40013002B03D0BA693B69DA
:1021D0001343BB61244ABB69D360234B5B68BB617B
:1021E0003B69DB43BA691340BB613B685B6803F43E
:1021F0000033002B03D0BA693B691343BB611A4A11
:10220000BB695360184B1B68BB613B69DB43BA6910
:102210001340BB613B685B6803F48033002B03D041
:10222000BA693B691343BB610F4ABB691360FB6921
:102230000133FB61FB690F2B7FF6A2AE00BF00BF2D
:102240002437BD465DF8047B704700BF003802406C
:102250000038014000000240000402400008024033
:10226000000C024000100240003C014080B483B0EA
:1022700000AF78600B467B8013467B707B78002B29
:1022800003D07A887B689A6103E07B881A047B68B4
:102290009A6100BF0C37BD465DF8047B70470000B3
:1022A00080B584B000AF78607B68002B01D101233A
:1022B0002BE17B6893F83D30DBB2002B06D17B68C5
:1022C000002283F83C207868FFF7ACFB7B6824226F
:1022D00083F83D207B681B681A687B681B6822F0C6
:1022E00001021A607B681B681A687B681B6842F4ED
:1022F00000421A607B681B681A687B681B6822F4BE
:1023000000421A6001F05EFCF8607B685B68814AFD
:10231000934207D8FB68804A934294BF012300236D
:10232000DBB206E0FB687D4A934294BF01230023A1
:10233000DBB2002B01D00123E7E0FB68784AA2FB67
:1023400003239B0CBB607B681B685B6823F03F0129
:102350007B681B68BA680A435A607B681B681B6A03
:1023600023F03F017B685B686A4A934202D8BB68EE
:10237000013309E0BB684FF4967202FB03F3694A2C
:10238000A2FB03239B0901337A6812680B43136293
:102390007B681B68DB6923F44F4222F0FF027B68F5
:1023A0005B685C498B4219D8FB68591E7B685B6887
:1023B0005B00B1FBF3F3591C40F6FC730B40002BA0
:1023C0000AD0FB68591E7B685B685B00B1FBF3F3C6
:1023D0000133C3F30B0351E004234FE07B689B6898
:1023E000002B11D1FB68581E7B6859680B465B00B7
:1023F0000B44B0FBF3F30133C3F30B03002B0CBF0F
:1024000001230023DBB212E0FB68581E7B68596889
:102410000B469B000B4499000B44B0FBF3F30133D4
:10242000C3F30B03002B0CBF01230023DBB2002BF3
:1024300001D0012322E07B689B68002B0ED1FB6852
:10244000581E7B6859680B465B000B44B0FBF3F3E6
:102450000133C3F30B0343F400430FE0FB68581E42
:102460007B6859680B469B000B4499000B44B0FBFA
:10247000F3F30133C3F30B0343F440437968096872
:102480001343CB617B681B681B6823F0C0017B682A
:10249000DA697B681B6A1A437B681B680A431A6007
:1024A0007B681B689B6823F4034323F0FF037A686F
:1024B00011697A68D26811437A6812680B43936095
:1024C0007B681B68DB6823F0FF017B685A697B68C7
:1024D0009B691A437B681B680A43DA607B681B6848
:1024E0001A687B681B6842F001021A607B68002250
:1024F0001A647B68202283F83D207B6800221A63DF
:102500007B68002283F83E20002318461037BD4622
:1025100080BD00BFA08601007F841E00FF083D0033
:1025200083DE1B43D34D621080B588B002AFF860E4
:10253000084611461A4603467B810B463B811346EB
:10254000FB80FFF7F9FB7861FB6893F83D30DBB265
:10255000202B40F0D9807B690093192301226D491B
:10256000F86800F08BFC0346002B01D00223CCE07E
:10257000FB6893F83C30012B01D10223C5E0FB68D6
:10258000012283F83C20FB681B681B6803F00103F1
:10259000012B07D0FB681B681A68FB681B6842F0B8
:1025A00001021A60FB681B681A68FB681B6822F44A
:1025B00000621A60FB68212283F83D20FB684022FC
:1025C00083F83E20FB6800221A64FB683A6A5A626C
:1025D000FB68BA8C5A85FB685B8D9AB2FB681A85DA
:1025E000FB684D4ADA62F8883A8979897B690193F8
:1025F000BB6A00930346F86800F0C2FA0346002B5A
:1026000052D0012381E07A69B96AF86800F050FD80
:102610000346002B0DD0FB681B6C042B07D1FB6815
:102620001B681A68FB681B6842F400721A60012379
:102630006BE0FB685B6A1A78FB681B681A61FB68D1
:102640005B6A5A1CFB685A62FB681B8D013B9AB29D
:10265000FB681A85FB685B8D9BB2013B9AB2FB68F5
:102660005A85FB681B685B6903F00403042B1BD1CC
:10267000FB681B8D002B17D0FB685B6A1A78FB6820
:102680001B681A61FB685B6A5A1CFB685A62FB682C
:102690001B8D013B9AB2FB681A85FB685B8D9BB270
:1026A000013B9AB2FB685A85FB681B8D002BAAD1AF
:1026B0007A69B96AF86800F043FD0346002B0DD033
:1026C000FB681B6C042B07D1FB681B681A68FB684E
:1026D0001B6842F400721A60012316E0FB681B6855
:1026E0001A68FB681B6842F400721A60FB682022BB
:1026F00083F83D20FB68002283F83E20FB6800221F
:1027000083F83C20002300E0022318461837BD461A
:1027100080BD00BF020010000000FFFF80B58CB03C
:1027200002AFF860084611461A4603467B810B4605
:102730003B811346FB80FFF7FFFA7862FB6893F852
:102740003D30DBB2202B40F014827B6A00931923CA
:1027500001227B49F86800F091FB0346002B01D071
:10276000022307E2FB6893F83C30012B01D10223DE
:1027700000E2FB68012283F83C20FB681B681B68B1
:1027800003F00103012B07D0FB681B681A68FB6884
:102790001B6842F001021A60FB681B681A68FB683C
:1027A0001B6822F400621A60FB68222283F83D2035
:1027B000FB68402283F83E20FB6800221A64FB6815
:1027C0003A6B5A62FB68BA8E5A85FB685B8D9AB287
:1027D000FB681A85FB685B4ADA62F8883A8979896E
:1027E0007B6A0193BB6B00930346F86800F05EFAC6
:1027F0000346002B01D00123BCE1FB681B8D002B9D
:1028000013D100233B62FB681B685B693B62FB687A
:102810001B689B693B623B6AFB681B681A68FB6824
:102820001B6842F400721A6090E1FB681B8D012B5B
:102830001BD1FB681B681A68FB681B6822F4806266
:102840001A600023FB61FB681B685B69FB61FB6826
:102850001B689B69FB61FB69FB681B681A68FB6866
:102860001B6842F400721A6070E1FB681B8D022B3A
:102870001BD1FB681B681A68FB681B6822F4806226
:102880001A60FB681B681A68FB681B6842F40062E8
:102890001A600023BB61FB681B685B69BB61FB6856
:1028A0001B689B69BB61BB6950E100237B61FB68CE
:1028B0001B685B697B61FB681B689B697B617B694B
:1028C00044E1FB681B8D032B00F2F180FB681B8D3C
:1028D000012B23D17A6AB96BF86800F079FC0346C2
:1028E000002B01D0012345E1FB681B681A69FB68D6
:1028F0005B6AD2B21A70FB685B6A5A1CFB685A6248
:10290000FB681B8D013B9AB2FB681A85FB685B8DE7
:102910009BB2013B9AB2FB685A8517E1FB681B8D9D
:10292000022B4ED17B6A0093BB6B00220649F868EC
:1029300000F0A4FA0346002B08D001231AE100BFDF
:10294000020010000000FFFF04000100FB681B688C
:102950001A68FB681B6842F400721A60FB681B6807
:102960001A69FB685B6AD2B21A70FB685B6A5A1C10
:10297000FB685A62FB681B8D013B9AB2FB681A85A3
:10298000FB685B8D9BB2013B9AB2FB685A85FB6882
:102990001B681A69FB685B6AD2B21A70FB685B6AD3
:1029A0005A1CFB685A62FB681B8D013B9AB2FB689C
:1029B0001A85FB685B8D9BB2013B9AB2FB685A8516
:1029C000C4E07B6A0093BB6B00226C49F86800F09E
:1029D00055FA0346002B01D00123CBE0FB681B68AE
:1029E0001A68FB681B6822F480621A60FB681B6827
:1029F0001A69FB685B6AD2B21A70FB685B6A5A1C80
:102A0000FB685A62FB681B8D013B9AB2FB681A8512
:102A1000FB685B8D9BB2013B9AB2FB685A857B6A6F
:102A20000093BB6B00225549F86800F027FA034673
:102A3000002B01D001239DE0FB681B681A68FB682E
:102A40001B6842F400721A60FB681B681A69FB6815
:102A50005B6AD2B21A70FB685B6A5A1CFB685A62E6
:102A6000FB681B8D013B9AB2FB681A85FB685B8D86
:102A70009BB2013B9AB2FB685A85FB681B681A69D6
:102A8000FB685B6AD2B21A70FB685B6A5A1CFB680F
:102A90005A62FB681B8D013B9AB2FB681A85FB6882
:102AA0005B8D9BB2013B9AB2FB685A854EE07A6A15
:102AB000B96BF86800F08CFB0346002B01D00123B2
:102AC00058E0FB681B681A69FB685B6AD2B21A702F
:102AD000FB685B6A5A1CFB685A62FB681B8D013BF2
:102AE0009AB2FB681A85FB685B8D9BB2013B9AB278
:102AF000FB685A85FB681B685B6903F00403042BC1
:102B000024D1FB681B8D032B07D1FB681B681A6857
:102B1000FB681B6822F480621A60FB681B681A69F4
:102B2000FB685B6AD2B21A70FB685B6A5A1CFB686E
:102B30005A62FB681B8D013B9AB2FB681A85FB68E1
:102B40005B8D9BB2013B9AB2FB685A85FB681B8D7B
:102B5000002B7FF4B6AEFB68202283F83D20FB6893
:102B6000002283F83E20FB68002283F83C200023EB
:102B700000E0022318462837BD4680BD040001004E
:102B800080B588B002AFF860084611461A46034681
:102B90007B810B463B811346FB80FB681B681A68F0
:102BA000FB681B6842F480721A607B6A00933B6A80
:102BB00000224FF00111F86800F060F90346002B85
:102BC0000DD0FB681B681B6803F48073B3F5807F2E
:102BD00003D1FB684FF400721A6403235FE07B8922
:102BE000DBB21A46FB681B6802F0FE021A617B6AC0
:102BF0003A6A2D49F86800F0BBF90346002B01D072
:102C000001234CE000237B61FB681B685B697B61EF
:102C1000FB681B689B697B617B697A6A396AF86823
:102C200000F046FA0346002B0DD0FB681B6C042B0A
:102C300007D1FB681B681A68FB681B6842F40072C6
:102C40001A6001232BE0FB88012B05D13B89DAB206
:102C5000FB681B681A6121E03B891B0A9BB2DAB250
:102C6000FB681B681A617A6A396AF86800F020FA12
:102C70000346002B0DD0FB681B6C042B07D1FB68AF
:102C80001B681A68FB681B6842F400721A60012313
:102C900005E03B89DAB2FB681B681A61002318461D
:102CA0001837BD4680BD00BF0200010080B588B066
:102CB00002AFF860084611461A4603467B810B4670
:102CC0003B811346FB80FB681B681A68FB681B6826
:102CD00042F480621A60FB681B681A68FB681B6814
:102CE00042F480721A607B6A00933B6A00224FF0C4
:102CF0000111F86800F0C2F80346002B0DD0FB6804
:102D00001B681B6803F48073B3F5807F03D1FB68F5
:102D10004FF400721A640323AAE07B89DBB21A46DF
:102D2000FB681B6802F0FE021A617B6A3A6A52492C
:102D3000F86800F01DF90346002B01D0012397E04D
:102D400000237B61FB681B685B697B61FB681B6818
:102D50009B697B617B697A6A396AF86800F0A8F937
:102D60000346002B0DD0FB681B6C042B07D1FB68BE
:102D70001B681A68FB681B6842F400721A60012322
:102D800076E0FB88012B05D13B89DAB2FB681B6832
:102D90001A6121E03B891B0A9BB2DAB2FB681B680F
:102DA0001A617A6A396AF86800F082F90346002BE2
:102DB0000DD0FB681B6C042B07D1FB681B681A68DD
:102DC000FB681B6842F400721A60012350E03B89E3
:102DD000DAB2FB681B681A617A6A396AF86800F02F
:102DE00067F90346002B0DD0FB681B6C042B07D141
:102DF000FB681B681A68FB681B6842F400721A6063
:102E0000012335E0FB681B681A68FB681B6842F405
:102E100080721A607B6A00933B6A00224FF00111B6
:102E2000F86800F02BF80346002B0DD0FB681B68F8
:102E30001B6803F48073B3F5807F03D1FB684FF404
:102E400000721A64032313E07B89DBB243F00103B1
:102E5000DAB2FB681B681A617B6A3A6A0649F8684D
:102E600000F086F80346002B01D0012300E0002388
:102E700018461837BD4680BD0200010080B584B0F9
:102E800000AFF860B9603B601346FB7148E03B68F7
:102E9000B3F1FF3F44D0FEF74FFF0246BB69D31AA0
:102EA0003A689A4202D33B68002B39D1BB681B0CAD
:102EB000DBB2012B0DD1FB681B685B69DA43BB6891
:102EC00013409BB2002B0CBF01230023DBB21A4638
:102ED0000CE0FB681B689B69DA43BB6813409BB23C
:102EE000002B0CBF01230023DBB21A46FB799A4268
:102EF00016D1FB6800221A63FB68202283F83D206C
:102F0000FB68002283F83E20FB681B6C43F0200224
:102F1000FB681A64FB68002283F83C20012323E04D
:102F2000BB681B0CDBB2012B0DD1FB681B685B6916
:102F3000DA43BB6813409BB2002B0CBF0123002374
:102F4000DBB21A460CE0FB681B689B69DA43BB687E
:102F500013409BB2002B0CBF01230023DBB21A46A7
:102F6000FB799A4293D0002318461037BD4680BDA6
:102F700080B584B000AFF860B9607A603B6071E002
:102F8000FB681B685B6903F48063B3F5806F23D132
:102F9000FB681B681A68FB681B6842F400721A60C1
:102FA000FB681B686FF480625A61FB6800221A6339
:102FB000FB68202283F83D20FB68002283F83E2036
:102FC000FB681B6C43F00402FB681A64FB68002278
:102FD00083F83C20012367E07B68B3F1FF3F41D0D9
:102FE000FEF7AAFE02463B68D31A7A689A4202D3D9
:102FF0007B68002B36D1BB681B0CDBB2012B0CD1DC
:10300000FB681B685B69DA43BB6813409BB2002B0B
:1030100014BF01230023DBB20BE0FB681B689B6934
:10302000DA43BB6813409BB2002B14BF012300237B
:10303000DBB2002B16D0FB6800221A63FB6820224B
:1030400083F83D20FB68002283F83E20FB681B6C60
:1030500043F02002FB681A64FB68002283F83C20DE
:10306000012321E0BB681B0CDBB2012B0CD1FB68F8
:103070001B685B69DA43BB6813409BB2002B14BF2B
:1030800001230023DBB20BE0FB681B689B69DA437A
:10309000BB6813409BB2002B14BF01230023DBB29B
:1030A000002B7FF46DAF002318461037BD4680BD5E
:1030B00080B584B000AFF860B9607A6034E0F86839
:1030C00000F0E3F80346002B01D0012334E0BB6895
:1030D000B3F1FF3F28D0FEF72FFE02467B68D31ADC
:1030E000BA689A4202D3BB68002B1DD1FB681B68EB
:1030F0005B6903F08003802B16D0FB6800221A6303
:10310000FB68202283F83D20FB68002283F83E20E4
:10311000FB681B6C43F02002FB681A64FB6800220A
:1031200083F83C20012307E0FB681B685B6903F020
:103130008003802BC3D1002318461037BD4680BDC5
:1031400080B584B000AFF860B9607A6034E0F868A8
:1031500000F09BF80346002B01D0012334E0BB684C
:10316000B3F1FF3F28D0FEF7E7FD02467B68D31A94
:10317000BA689A4202D3BB68002B1DD1FB681B685A
:103180005B6903F00403042B16D0FB6800221A636A
:10319000FB68202283F83D20FB68002283F83E2054
:1031A000FB681B6C43F02002FB681A64FB6800227A
:1031B00083F83C20012307E0FB681B685B6903F090
:1031C0000403042BC3D1002318461037BD4680BD2D
:1031D00080B584B000AFF860B9607A6049E0FB6800
:1031E0001B685B6903F01003102B19D1FB681B6887
:1031F0006FF010025A61FB6800221A63FB682022FC
:1032000083F83D20FB68002283F83E20FB681A6C9F
:10321000FB681A64FB68002283F83C20012330E03D
:10322000FEF78AFD02467B68D31ABA689A4202D337
:10323000BB68002B1DD1FB681B685B6903F0400372
:10324000402B16D0FB6800221A63FB68202283F80B
:103250003D20FB68002283F83E20FB681B6C43F096
:103260002002FB681A64FB68002283F83C200123DB
:1032700007E0FB681B685B6903F04003402BAED19D
:10328000002318461037BD4680BD80B483B000AF20
:1032900078607B681B685B6903F48063B3F5806FBB
:1032A0001BD17B681B686FF480625A617B680022C7
:1032B0001A637B68202283F83D207B68002283F814
:1032C0003E207B681B6C43F004027B681A647B68B9
:1032D000002283F83C20012300E0002318460C372D
:1032E000BD465DF8047B704780B586B000AF78605E
:1032F0007B68002B01D1012367E27B681B6803F028
:103300000103002B75D0884B9B6803F00C03042B42
:103310000CD0854B9B6803F00C03082B12D1824B19
:103320005B6803F48003B3F5800F0BD17E4B1B6801
:1033300003F40033002B5BD07B685B68002B57D114
:10334000012342E27B685B68B3F5803F06D1764B90
:103350001B68754A43F4803313601DE07B685B682B
:10336000B3F5A02F0CD1704B1B686F4A43F4802338
:1033700013606D4B1B686C4A43F4803313600BE0A1
:10338000694B1B68684A23F480331360664B1B68E3
:10339000654A23F4802313607B685B68002B13D09D
:1033A000FEF7CAFC386108E0FEF7C6FC02463B693E
:1033B000D31A642B01D9032307E25B4B1B6803F488
:1033C0000033002BF0D014E0FEF7B6FC386108E0C3
:1033D000FEF7B2FC02463B69D31A642B01D90323E2
:1033E000F3E1514B1B6803F40033002BF0D100E0F4
:1033F00000BF7B681B6803F00203002B63D04A4BBD
:103400009B6803F00C03002B0BD0474B9B6803F029
:103410000C03082B1CD1444B5B6803F48003002B86
:1034200016D1414B1B6803F00203002B05D07B68CB
:10343000DB68012B01D00123C7E13B4B1B6823F064
:10344000F8027B681B69DB00374913430B603AE0E5
:103450007B68DB68002B20D0344B01221A60FEF71A
:103460006BFC386108E0FEF767FC02463B69D31A43
:10347000022B01D90323A8E12B4B1B6803F00203A5
:10348000002BF0D0284B1B6823F0F8027B681B69E7
:10349000DB00254913430B6015E0244B00221A6022
:1034A000FEF74AFC386108E0FEF746FC02463B693D
:1034B000D31A022B01D9032387E11B4B1B6803F0AE
:1034C0000203002BF0D17B681B6803F00803002B7C
:1034D00036D07B685B69002B16D0154B01221A6031
:1034E000FEF72AFC386108E0FEF726FC02463B693D
:1034F000D31A022B01D9032367E10B4B5B6F03F057
:103500000203002BF0D01BE0094B00221A60FEF7EB
:1035100013FC38610EE0FEF70FFC02463B69D31A3C
:10352000022B07D9032350E1003802400000474234
:10353000800E4742884B5B6F03F00203002BEAD1F9
:103540007B681B6803F00403002B00F097800023C6
:10355000FB75814B1B6C03F08053002B0FD10023B4
:10356000BB607D4B1B6C7C4A43F0805313647A4BE9
:103570001B6C03F08053BB60BB680123FB75774B6A
:103580001B6803F48073002B18D1744B1B68734ABB
:1035900043F480731360FEF7CFFB386108E0FEF759
:1035A000CBFB02463B69D31A022B01D903230CE162
:1035B0006A4B1B6803F48073002BF0D07B689B6818
:1035C000012B06D1644B1B6F634A43F00103136761
:1035D0001CE07B689B68052B0CD15F4B1B6F5E4A20
:1035E00043F0040313675C4B1B6F5B4A43F001031A
:1035F00013670BE0584B1B6F574A23F00103136707
:10360000554B1B6F544A23F0040313677B689B6878
:10361000002B15D0FEF790FB38610AE0FEF78CFB1B
:1036200002463B69D31A41F28832934201D90323FF
:10363000CBE0494B1B6F03F00203002BEED014E0EC
:10364000FEF77AFB38610AE0FEF776FB02463B693B
:10365000D31A41F28832934201D90323B5E03E4B9D
:103660001B6F03F00203002BEED1FB7D012B05D174
:10367000394B1B6C384A23F0805313647B689B6979
:10368000002B00F0A180344B9B6803F00C03082B47
:103690005CD07B689B69022B41D1314B00221A60C0
:1036A000FEF74AFB386108E0FEF746FB02463B693D
:1036B000D31A022B01D9032387E0274B1B6803F0A1
:1036C0000073002BF0D17B68DA697B681B6A1A43B0
:1036D0007B685B6A9B011A437B689B6A5B08013BC2
:1036E0001B041A437B68DB6A1B061B4913434B60B0
:1036F0001B4B01221A60FEF71FFB386108E0FEF742
:103700001BFB02463B69D31A022B01D903235CE061
:10371000114B1B6803F00073002BF0D054E0104BEA
:1037200000221A60FEF708FB386108E0FEF704FB90
:1037300002463B69D31A022B01D9032345E0064B0D
:103740001B6803F00073002BF0D13DE07B689B69A0
:10375000012B07D1012338E00038024000700040FF
:10376000600047421B4B5B68FB607B689B69012BD9
:1037700028D0FB6803F480027B68DB699A4221D180
:10378000FB6803F03F027B681B6A9A421AD1FA6811
:1037900047F6C07313407A68526A9201934211D17E
:1037A000FB6803F440327B689B6A5B08013B1B04A7
:1037B0009A4207D1FB6803F070627B68DB6A1B06E4
:1037C0009A4201D0012300E0002318461837BD4675
:1037D00080BD00BF0038024080B584B000AF786083
:1037E00039607B68002B01D10123CCE0684B1B685A
:1037F00003F007033A689A420CD9654B3A68D2B293
:103800001A70634B1B6803F007033A689A4201D0B1
:103810000123B8E07B681B6803F00203002B20D073
:103820007B681B6803F00403002B05D0594B9B6891
:10383000584A43F4E05393607B681B6803F0080325
:10384000002B05D0534B9B68524A43F4604393606E
:10385000504B9B6823F0F0027B689B684D491343F3
:103860008B607B681B6803F00103002B44D07B68EE
:103870005B68012B07D1474B1B6803F40033002B17
:1038800019D101237FE07B685B68022B03D07B6842
:103890005B68032B07D13F4B1B6803F00073002BC1
:1038A00009D101236FE03B4B1B6803F00203002B9F
:1038B00001D1012367E0374B9B6823F003027B684B
:1038C0005B68344913438B60FEF736FAF8600AE010
:1038D000FEF732FA0246FB68D31A41F2883293426D
:1038E00001D903234FE02B4B9B6803F00C027B684C
:1038F0005B689B009A42EBD1254B1B6803F00703E2
:103900003A689A420CD2224B3A68D2B21A70204BD3
:103910001B6803F007033A689A4201D0012332E0A2
:103920007B681B6803F00403002B08D0194B9B68CD
:1039300023F4E0527B68DB68164913438B607B6895
:103940001B6803F00803002B09D0124B9B6823F47B
:1039500060427B681B69DB000E4913438B6000F0FB
:1039600021F802460B4B9B681B0903F00F030A4921
:10397000CB5C22FA03F3094A1360094B1B68184613
:10398000FEF796F9002318461037BD4680BD00BFEC
:10399000003C0240003802406846000864000020F5
:1039A000680000202DE9B04F94B000AF00237B6485
:1039B0000023FB6400233B640023BB64794B9B68BA
:1039C00003F00C03082B0DD0082B00F2E180002B34
:1039D00002D0042B03D0DBE0734BBB64DBE0724B03
:1039E000BB64D8E06F4B5B6803F03F037B646D4BB7
:1039F0005B6803F48003002B63D06A4B5B689B0910
:103A00000022BB63FA63BB6BC3F308033B63002371
:103A10007B63D7E90C4522462B464FF000004FF060
:103A20000001590141EAD261500102460B4621468C
:103A3000511A3961294663EB01037B614FF00002A3
:103A40004FF00003D7E904AB59468B01514643EAD6
:103A5000916351468A015146B2EB0108594663EB26
:103A600001094FF000024FF000034FEAC90343EA97
:103A700058734FEAC80290469946234618EB030351
:103A8000BB602B4649EB0303FB604FF000024FF095
:103A90000003D7E9024529468B02214643EA9153A8
:103AA00021468A02104619467B6C0022BB62FA62EC
:103AB000D7E90A23FCF7C8FB02460B461346FB6412
:103AC00058E0384B5B689B09002218461146C0F34A
:103AD00008033B6200237B62D7E9088942464B46D4
:103AE0004FF000004FF00001590141EAD26150014E
:103AF00002460B464146B2EB010A494663EB010B15
:103B00004FF000024FF000034FEA8B1343EA9A6331
:103B10004FEA8A12B2EB0A0463EB0B054FF0000286
:103B20004FF00003EB0043EA5473E20014461D46D5
:103B30004346E3183B604B4645EB03037B604FF085
:103B400000024FF00003D7E9004529468B022146C9
:103B500043EA915321468A02104619467B6C0022A3
:103B6000BB61FA61D7E90623FCF76EFB02460B4600
:103B70001346FB640B4B5B681B0C03F00303013320
:103B80005B003B64FA6C3B6CB2FBF3F3BB6402E09A
:103B9000054BBB6400BFBB6C18465037BD46BDE843
:103BA000B08F00BF003802400024F40080B400AFA2
:103BB000034B1B681846BD465DF8047B704700BF89
:103BC0006400002080B500AFFFF7F0FF0246054B10
:103BD0009B689B0A03F007030349CB5C22FA03F3BB
:103BE000184680BD003802407846000880B500AF16
:103BF000FFF7DCFF0246054B9B685B0B03F00703F6
:103C00000349CB5C22FA03F3184680BD003802401A
:103C10007846000880B582B000AF78607B68002BE2
:103C200001D1012342E07B6893F84130DBB2002BE5
:103C300006D17B68002283F840207868FDF75CFF9E
:103C40007B68242283F841207B681B68DA687B68E4
:103C50001B6822F40052DA60786800F073F97B6820
:103C60001B681A697B681B6822F490421A617B68A2
:103C70001B685A697B681B6822F02A025A617B68BC
:103C80001B68DA687B681B6842F40052DA607B6864
:103C900000225A647B68202283F841207B6820221E
:103CA00083F842207B6800225A63002318460837B5
:103CB000BD4680BD80B58AB002AFF860B9603B6098
:103CC0001346FB8000237B61FB6893F84130DBB235
:103CD000202B75D1BB68002B02D0FB88002B01D1B3
:103CE00001236EE0FB6800225A64FB68212283F8FE
:103CF0004120FEF721F87861FB68FA889A84FB6816
:103D0000FA88DA84FB689B68B3F5805F08D1FB68AA
:103D10001B69002B04D10023FB61BB68BB6103E07E
:103D2000BB68FB610023BB612EE03B6800937B69AD
:103D300000228021F86800F048F80346002B05D0E7
:103D4000FB68202283F8412003233AE0FB69002B23
:103D50000BD1BB691B881A46FB681B68C2F30802BB
:103D60005A60BB690233BB6107E0FB691A78FB68E4
:103D70001B685A60FB690133FB61FB68DB8C9BB2FB
:103D8000013B9AB2FB68DA84FB68DB8C9BB2002BA8
:103D9000CBD13B6800937B6900224021F86800F09A
:103DA00014F80346002B05D0FB68202283F841203D
:103DB000032306E0FB68202283F84120002300E073
:103DC000022318462037BD4680BD80B586B000AFBF
:103DD000F860B9603B601346FB713BE03B6AB3F1AE
:103DE000FF3F37D0FDF7A8FF02463B68D31A3A6A77
:103DF0009A4202D33B6A002B01D103233AE0FB68CD
:103E00001B68DB6803F00403002B23D0BB68802B06
:103E100020D0BB68402B1DD0FB681B681B6803F0DB
:103E20000803082B16D100237B61FB681B681B6805
:103E30007B61FB681B685B687B617B69F86800F0ED
:103E40001DF8FB6808225A64FB68002283F84020B2
:103E500001230FE0FB681B681A68BB681340BA684F
:103E60009A420CBF01230023DBB21A46FB799A4227
:103E7000B4D0002318461837BD4680BD80B495B035
:103E800000AF78607B681B680C337B637B6B53E807
:103E9000003F3B633B6B23F49073FB647B681B68C0
:103EA0000C33FA6C3A64FB63F96B3A6C41E800231B
:103EB000BB63BB6B002BE5D17B681B6814333B6293
:103EC0003B6A53E8003FFB61FB6923F00103BB64DD
:103ED0007B681B681433BA6CFA62BB62B96AFA6A0F
:103EE00041E800237B627B6A002BE5D17B681B6B7A
:103EF000012B19D17B681B680C33FB60FB6853E80E
:103F0000003FBB60BB6823F010037B647B681B68C9
:103F10000C337A6CBA617B617969BA6941E8002334
:103F20003B613B69002BE5D17B68202283F842206E
:103F30007B6800221A6300BF5437BD465DF8047BDE
:103F4000704700002DE9B04FC0B000AFC7F8F400D3
:103F5000D7F8F4301B681B6923F44050D7F8F430CD
:103F6000D968D7F8F4301A6840EA01031361D7F82A
:103F7000F4309A68D7F8F4301B691A43D7F8F43054
:103F80005B691A43D7F8F430DB691343C7F8F8309C
:103F9000D7F8F4301B68DB6823F4164121F00C01DC
:103FA000D7F8F4301A68D7F8F8300B43D360D7F855
:103FB000F4301B685B6923F44070D7F8F4309969DA
:103FC000D7F8F4301A6840EA01035361D7F8F430A7
:103FD0001A688F4B9A4205D0D7F8F4301A688D4B87
:103FE0009A4204D1FFF702FEC7F8FC0003E0FFF796
:103FF000E9FDC7F8FC00D7F8F430DB69B3F5004FF2
:1040000040F00C81D7F8FC300022C7F8E830C7F840
:10401000EC20D7E93A4522462B469118B9655B4119
:10402000FB65D7E91623214612EB0108294643EB2D
:1040300001094FF000024FF000034FEAC90343EAC1
:1040400058734FEAC80290469946234618EB03037B
:10405000C7F8E0302B4649EB0303C7F8E430D7F844
:10406000F4305B680022C7F8D830C7F8DC20D7E905
:1040700036120B46DB183B65134642EB03037B65A8
:10408000D7E91423D7E93801FCF7DEF802460B46DE
:10409000614BA3FB02235B091C01D7F8FC30002213
:1040A000C7F8D030C7F8D420D7E9348942464B4608
:1040B0009118B9645B41FB64D7E91223414612EBC6
:1040C000010A494643EB010B4FF000024FF0000399
:1040D0004FEACB0343EA5A734FEACA0292469B4621
:1040E00043461AEB0303C7F8C8304B464BEB0303B8
:1040F000C7F8CC30D7F8F4305B680022C7F8C0307E
:10410000C7F8C420D7E930120B46DB183B641346CE
:1041100042EB03037B64D7E91023D7E93201FCF7B4
:1041200093F802460B4611463B4BA3FB01235B0968
:10413000642202FB03F3CB1ADB0003F13202364B9D
:10414000A3FB02235B095B0003F4F8731C44D7F85C
:10415000FC300022C7F8B830C7F8BC20D7E92E8958
:1041600042464B469118B9635B41FB63D7E90E2386
:1041700041465118396349464B417B634FF0000279
:104180004FF00003D7E90CAB5946CB00514643EA48
:1041900051735146CA0010461946034642469B18C1
:1041A000C7F8B0304B460A4642EB0303C7F8B430B9
:1041B000D7F8F4305B680022C7F8A830C7F8AC2005
:1041C000D7E92A120B46DB18BB62134642EB030306
:1041D000FB62D7E90A23D7E92C01FCF735F8024640
:1041E0000B460D4BA3FB02135B09642101FB03F398
:1041F000D31ADB003233084AA2FB03235B0903F026
:104200000702D7F8F4301B6822449A6005E100BF2A
:1042100000100140001401401F85EB51D7F8FC301D
:104220000022C7F8A030C7F8A420D7E92889424661
:104230004B46911839625B417B62D7E908234146BE
:104240005418494643EB01054FF000024FF00003BC
:10425000EB0043EA5473E20014461D464346E3185C
:10426000C7F898304B4645EB0303C7F89C30D7F8A6
:10427000F4305B680022C7F89030C7F894204FF004
:1042800000024FF00003D7E9244529468B00214660
:1042900043EA917321468A00D7E92601FBF7D4FF50
:1042A00002460B46604BA3FB02235B091C01D7F8B7
:1042B000FC300022C7F88830C7F88C20D7E9228963
:1042C00042464B469118B9615B41FB61D7E9062331
:1042D00041465118396149464B417B614FF000021C
:1042E0004FF00003D7E904AB5946CB00514643EAEF
:1042F00051735146CA0010461946034642469B1860
:10430000C7F880304B460A4642EB0303C7F88430B7
:10431000D7F8F4305B680022BB67FA674FF0000201
:104320004FF00003D7E91E8949468B00414643EA16
:10433000917341468A00D7E92001FBF785FF0246C9
:104340000B46394BA3FB02135B09642101FB03F30A
:10435000D31A1B013233344AA2FB03235B0903F057
:10436000F0031C44D7F8FC3000223B677A67D7E99A
:104370001C8942464B469118B9605B41FB60D7E906
:10438000022341465118396049464B417B604FF04A
:1043900000024FF00003D7E900AB5946CB0051466D
:1043A00043EA51735146CA00104619460346424635
:1043B0009B18BB664B460A4642EB0303FB66D7F8E5
:1043C000F4305B6800223B667A664FF000024FF0E3
:1043D0000003D7E9188949468B00414643EA9173A7
:1043E00041468A00D7E91A01FBF72EFF02460B4629
:1043F0000D4BA3FB02135B09642101FB03F3D31AEA
:104400001B013233084AA2FB03235B0903F00F02AE
:10441000D7F8F4301B6822449A6000BF07F5807714
:10442000BD46BDE8B08F00BF1F85EB51DFF834D02B
:10443000FDF70AFC0C480D490D4A002302E0D45850
:10444000C4500433C4188C42F9D30A4A0A4C0023DE
:1044500001E013600432A242FBD3FCF77DF8FDF7C4
:1044600061F870470000012000000020700000206B
:10447000CC460008700000203C010020FEE7000050
:10448000F8B500BFF8BC08BC9E467047F8B500BF41
:08449000F8BC08BC9E46704711
:104498005355434345535300494E56414C49445F95
:1044A800434F4D4D414E4400434F4D4D414E445FA7
:1044B8004641494C45440000494E56414C49445FE9
:1044C800415247554D454E5400000000554E4B4E45
:1044D8004F574E000D0A3D3D3D204359504433315E
:1044E800373720534E4B50204F564552524944457A
:1044F8002054455354203D3D3D0D0A00534E4B502A
:10450800207061796C6F6164207772697474656E6C
:1045180020746F203078313830300D0A00000000E8
:104528004552524F523A20534E4B5020777269747D
:1045380065206661696C6564210D0A0053454C4528
:1045480043545F53494E4B5F50444F203D203078D1
:104558003031207772697474656E0D0A00000000AE
:104568004552524F523A2053454C4543545F5349A4
:104578004E4B5F50444F20777269746520666169BD
:104588006C6564210D0A000050445F524553504F3A
:104598004E53453A20436F64653D30782530325894
:1045A800204C656E3D25750D0A000000435552529A
:1045B800454E545F50444F203D2030782530386CAC
:1045C800580D0A0043555252454E545F52444F20ED
:1045D8003D2030782530386C580D0A005642555326
:1045E800203D202575206D560D0A00003D3D3D20DB
:1045F8005445535420434F4D504C455445203D3D60
:104608003D0D0A0049276C6C206E6F77206A757320
:104618007420736974206865726520616E64206314
:104628006F6E74696E756520746F207265616420A1
:1046380062757320766F6C74616765730D0A00008C
:10464800534E4B5000000000000000000000000026
:104658000000000000000000000000000000000052
:10466800000000000000000001020304060708091A
:104678000000000001020304232D302B200000005D
:10468800686C4C0065666745464700003031323338
:104698003435363738394142434445460000000036
:1046A80030313233343536373839616263646566A0
:0446B80000000000FE
:0846BC00BCBBFF7F0100000000
:0446C40029020008BF
:0446C80001020008E3
:1046CC0004000020000000000000000000000000BA
:1046DC0000000000000000000000000000000000CE
:1046EC0000000000000000000000000000000000BE
:1046FC0000000000000000000000000000000000AE
:10470C00000000000000000000000000000000009D
:10471C00000000000000000000000000000000008D
:10472C00000000000024F400100000000100000054
:040000050800442D7E
:00000001FF
